:020000040800F2
:10000000383E002049010008E12D00080F1D0008BE
:10001000FF2C00083511000891490008000000007D
:10002000000000000000000000000000F13C00089B
:10003000951400080000000089350008A54000085C
:100040006301000863010008630100086301000800
:1000500063010008630100086301000863010008F0
:1000600063010008630100086301000863010008E0
:1000700063010008630100086301000863010008D0
:1000800063010008630100086301000863010008C0
:1000900063010008630100086301000863010008B0
:1000A00063010008630100086301000863010008A0
:1000B0006301000863010008214300086301000890
:1000C0006301000863010008630100086301000880
:1000D00063010008D9440008630100086145000875
:1000E0006301000863010008630100086301000860
:1000F0006301000863010008630100086301000850
:10010000630100086301000863010008630100083F
:10011000630100086301000863010008630100082F
:10012000630100086301000863010008630100081F
:10013000DFF810D000F016FE00480047C558000850
:10014000AFF30080383E002006488047064800474D
:10015000FEE7FEE7FEE7FEE7FEE7FEE7FEE7FEE777
:10016000FEE7FEE7D940000831010008A0F1410197
:10017000192900D82030704740EA01039B0703D0BB
:1001800009E008C9121F08C0042AFAD203E011F8D6
:10019000013B00F8013B521EF9D27047D2B201E098
:1001A00000F8012B491EFBD270470022F6E710B57C
:1001B00013460A4604461946FFF7F0FF204610BDD5
:1001C000421E12F8013F002BFBD111F8013B02F84F
:1001D000013B002BF9D1704730B505462A460B4646
:1001E00012F8010B13F8014B08B1A042F8D01CB172
:1001F000002802D06D1CF1E7284630BDCAB2401E6F
:1002000010F8011F8A4202D00029F9D1002070475E
:10021000421C10F8011B0029FBD1801A704710B551
:10022000002200E0521C835C8C5CA34201D1002BB5
:10023000F8D1D8B2E1B2401A10BD10B5044600E0C2
:10024000401C0378002BFBD100E0401C521E04D35D
:1002500011F8013B0370002BF7D1002101702046FB
:1002600010BD30B505460020034600E05B1C9342FC
:1002700005D2EC5CC85C201A01D1002CF6D130BD4F
:100280002DE9FF4F087883B09946FF2805D0491C17
:100290002D2804D00024002008E000200BE00124D9
:1002A000F9E700EB800003EB4000491C0B78FF2BC3
:1002B000F7D104B1404200230293147819461D4639
:1002C0002D2C01D02B2C04D1521C2D2C13D000240A
:1002D0000294AA461478FF2C0FD00A25A3FB0578B8
:1002E00001FB05814FF0000C03FB0C11521CE319BC
:1002F0004AEB0101EEE70124EAE7814453EA0100F9
:1003000002D019F5C87F06DA03980021C0E9001170
:1003100007B0BDE8F08F0025AE4E2F46DFF8B8825B
:10032000184600F0FAFCCDE90001B9F1000002DA4C
:10033000C9F1000400E004460023A74A1AEB030BAE
:1003400042EB045A12E0E00707D02A46334638460B
:10035000414600F0ECF9074688462A4633461046E7
:10036000194600F0E4F905460E466410002CEAD167
:10037000DDE90001B9F1000F5A46534606DA00F0F4
:100380005DFC3A46434600F059FC05E000F0CFF929
:100390003A46434600F0CBF9029A0AB181F0004197
:1003A000039AC2E90001B3E72DE9FF4F1F468DB064
:1003B000D7E901464FF0FF382E2045464FF000099F
:1003C0000B90B9696D1C0E988847396A8246884738
:1003D0000028F6D1BAF1FF3F0AD024F4D064002EF1
:1003E00011DDBAF12B0F08D0BAF12D0F0BD102E0BD
:1003F000404611B08DE744F48064B9696D1C0E98D5
:1004000088478246761E6946600501D52D2000E0AA
:100410002B208DF8000001F1010B0DF1200809E0FF
:10042000B9696D1C0E98884782460F9844F4007491
:10043000761E0560002E02DDBAF1300FF0D00B9968
:100440008A453ED144F0800406E00F99681CA9F16A
:10045000010944F400740860B9696D1C761E0E9899
:10046000884782463028F0D02BE00B998A4505D189
:10047000200603D444F08004761E18E0504604F0B1
:10048000B1FC08B30DF11301761E44F400748B45E2
:1004900008D2AAF130000BF8010B200607D5A9F10C
:1004A000010003E0200602D409F101008146A00505
:1004B00002D50F99681C0860B9696D1C0E988847B1
:1004C0008246002ED1DC53E0002E51DDBAF1650FDB
:1004D00002D0BAF1450F4BD1A00549D5B9696D1CC1
:1004E00024F44074761E0E9888478246002E0CDD58
:1004F0002B2804D0BAF12D0F07D144F48074B969C8
:100500006D1C0E9888478246761EE00501D52D2188
:1005100000E02B2108F8011BCDF82C8021E00DF123
:100520002901761E44F4007488450CD2AAF13000EB
:1005300010F0FF0088F8000002D10B99884509D916
:1005400008F1010806E0E00501D5244801E042F287
:100550000F708146B9696D1C0E98884782460F98C6
:100560000560002E04DD504604F03CFC0028D6D186
:10057000F9690E988847FF208BF8000088F8000082
:100580000020069007904B466A4608A906A8FFF788
:1005900077FEA00502D46FF001002AE714F0240FC3
:1005A0000AD0E00714D1DDE906123868031D3B606C
:1005B0000068C0E900120BE0DDE9060100F09EF9D9
:1005C0000146E00704D13868021D3A600068016006
:1005D00028460EE7000014400000F03FF1D8FFFF6E
:1005E0002DE9FE4F804681EA0300C00F0C460090C3
:1005F00021F0004123F00045B8EB0200A94105D2EB
:100600004046214690461C460B46024623F00040D9
:10061000104347D0270DC7F30A00C3F30A510290D5
:10062000401A019040286BDAC3F3130040F4801B9A
:100630000098924620B10023D2EB030A63EB0B0B28
:1006400001985946C0F14002504600F0C4F90646F0
:100650000D4650465946019A00F0DCF910EB0800AF
:100660006141002487EA115284EAE7731A4340D0BB
:10067000009A62B3019A012A4FEA075215DC001B67
:1006800061EB02014FF0004202EA0752CDE900425D
:10069000001C41F5801132462B4600F081FA03B070
:1006A000BDE8F08F40462146F9E7001B61EB0201EF
:1006B000001C41F5801300185B412018A2F50017BB
:1006C00047EB030140EAD570B6196D4111E06D08A2
:1006D0004FEA360645EAC0754FEA0752001B61EB48
:1006E0000201001C41F5801149084FEA3000001951
:1006F000514132462B4603B0BDE8F04F00F041BAFD
:100700000098012240000023D0EB020263EBE0736B
:10071000009821464FEAE074B8EB000061EB040159
:10072000E9E783F000435BE781F0004158E72DE9FA
:10073000FE4F81EA030404F0004421F000410094DC
:100740004FF0000B23F0004350EA01045ED052EA60
:1007500003045BD0C3F30A54C1F30A552C44A4F23A
:10076000F3340194A0FB0254C1F3130141F480114E
:10077000C3F3130343F4801301FB024400FB034E55
:10078000840A970A44EA815447EA8357A4FB07681E
:1007900002958D0A05FB07854FEA932C04FB0C5448
:1007A0002705029D4FEA065847EA1637B5EB0805BC
:1007B0006EEB070C870E920E47EA811742EA83120E
:1007C000A7FB0201B6EB0B0164EB00042B0D43EA1F
:1007D0000C335E1844EB1C50DA465146E7FB02012D
:1007E000C5F313044FEA0B3343EA14534FEA0432C0
:1007F000019C43EA0603A4F10C040294009CCDE999
:1008000000B400F0CDF903B0BDE8F08F0020014640
:10081000F9E796230022114600F085B90EB540F2A3
:10082000334102910021CDE900110A460B4600F048
:10083000B7F903B000BD70B5C1F30A5201F000452D
:100840000024C1F3130140F2FF3341F480119A42B6
:1008500001DA002070BD40F233439A42A2F23342E3
:1008600003DC524200F0C6F800E090402C43F1D087
:10087000404270BD00F0004230F000400AD0C10D8F
:1008800001F56071C0F3160042EA0151C208400749
:1008900011437047002001467047000030B5041E28
:1008A00071F1000404DB4FF00044404264EB0101AD
:1008B000141E73F1000405DB1C464FF00043524246
:1008C00063EB04038B4208BF824230BD30B5041E87
:1008D00071F1000404DB4FF00044404264EB01017D
:1008E000141E73F1000405DB1C464FF00043524216
:1008F00063EB0403994208BF904230BD01F000430E
:1009000030B421F0004150EA010206D00A0DA2F5F0
:100910006072C1F31301002A02DC30BC0020704772
:10092000440F44EAC104C100E01830BC00EBC250DF
:1009300000F0F0B8002801DBC0F10040002901DB25
:10094000C1F100418142704730B50B46014600209D
:100950002022012409E021FA02F59D4205D303FA81
:1009600002F5491B04FA02F52844151EA2F1010202
:10097000F1DC30BD2DE9F05F0546002092469B4634
:1009800088460646814640241BE0284641464746A5
:10099000224600F02FF853465A46C01A914110D310
:1009A00011461846224600F016F82D1A67EB01088A
:1009B0004F4622460120002100F00DF817EB0009F8
:1009C0004E41201EA4F10104DFDC484631462A4690
:1009D0004346BDE8F09F202A04DB203A00FA02F1EA
:1009E000002070479140C2F1200320FA03F319431D
:1009F00090407047202A04DB203A21FA02F00021BF
:100A0000704721FA02F3D040C2F12002914008431E
:100A100019467047202A06DBCB17203A41FA02F02C
:100A200043EAE07306E041FA02F3D040C2F120024B
:100A30009140084319467047426842B1016811F875
:100A4000013B23B1521EC0E9001218467047012134
:100A5000C160881E704742685AB1C368016843B9D3
:100A600083688B4205D0491E521CC0E90012002049
:100A700070474FF0FF3070470FB4002300B589B0C6
:100A80000CA900910B996FF00042CB601E4B0693AE
:100A90001E4B07930423CDE901321D4A08920246FA
:100AA0006B460020FFF780FC09B05DF814FB70B5C1
:100AB00086B006464FF0FF300091CDE901010020DD
:100AC00015460C4604903246694604A8FFF7D4FF49
:100AD00002460498211825B108B1084600E02046D6
:100AE0002860049800280DD0002A02DD0098884272
:100AF00008D0081B0094CDE901043246694604A8D9
:100B0000FFF7BAFF06B070BD390A0008570A00089F
:100B1000890D00080029A8BF7047401C490008BF84
:100B200020F00100704710B4B0FA80FC00FA0CF01D
:100B300050EA010404BF10BC704749B1CCF1200455
:100B400021FA04F411FA0CF118BF012121430843E2
:100B5000A3EB0C01CB1D4FEA00614FEA102042BF0E
:100B6000002010BC704700EBC35010440029A4BF04
:100B700010BC7047401C490008BF20F0010010BCA9
:100B8000704710B5141E73F1000408DA401C41F1DF
:100B9000000192185B411A4301D120F0010010BD01
:100BA0002DE9F04D92469B4611B1B1FA81F202E077
:100BB000B0FA80F220329046FFF70DFF04460F4650
:100BC00040EA0A0041EA0B0153465A46084313D053
:100BD000114653EA010019D0C8F140025046FFF710
:100BE00009FF05460E46504659464246FFF7F3FEBA
:100BF000084305D0012004E020463946BDE8F08DC9
:100C00000020054346EAE0762C4337430A98630503
:100C1000E40AA0EB08000022FD0A44EA47540A3027
:100C200002D500200146E9E7010510196941DDE917
:100C3000084500196941BDE8F04DA2E72DE9F04DE6
:100C400081EA030404F0004B21F0004514464FF004
:100C5000000A23F0004150EA050220D054EA0102C4
:100C60001DD0C5F30A570246C5F31303C1F31300A1
:100C7000C1F30A5640F4801543F48013A7EB06082D
:100C8000101BD64608F2FD3873EB050002D308F1BD
:100C9000010801E092185B41B8F1000F03DA00206F
:100CA0000146BDE8F08D00204FF4801106468446D1
:100CB0000EE0171B73EB050705D3121B63EB05034F
:100CC00006434CEA010C49084FEA300092185B4198
:100CD00050EA0107EDD152EA030012D082EA040083
:100CE00083EA0501084305D0101BAB4106D201225F
:100CF000002306E000224FF0004302E06FF0010203
:100D000053101AEB06004CEB085110EB0A0041EBB4
:100D10000B01BDE8F04DFFF734BF0EB540F2334292
:100D200002920022CDE900221346FFF739FF03B0FB
:100D300000BDC1F30A52C1F3130140F2FF3341F485
:100D400080119A4202DA00200146704740F2334394
:100D50009A42A2F2334202DC5242FFF74BBEFFF747
:100D60003ABE0000064C074D06E0E06840F0010383
:100D700094E8070098471034AC42F6D3FFF7DCF94B
:100D8000C8650008E8650008C0B24FF4F05100F0F3
:100D900001B800007F2801D9002208E0064A02EBD2
:100DA0005002C007127800D1120902F00F02012090
:100DB0009040084070470000D064000870B58C185F
:100DC00010F8015B15F0070301D110F8013B2A115F
:100DD00006D110F8012B03E010F8016B01F8016B4C
:100DE0005B1EF9D12B0705D40023521E0DD401F848
:100DF000013BFAE710F8013BCB1A921C03E013F811
:100E0000015B01F8015B521EF9D5A142D8D3002045
:100E100070BD21B1826842F00102826003E0826805
:100E200022F001028260704721B1826842F4807230
:100E3000826003E0826822F480728260704701461B
:100E400000208A6802F004020AB1012000E00020BC
:100E50007047014600208A6802F008020AB10120AA
:100E600000E000207047000030B50246002000235B
:100E700050680F4C20400D790C6844EA052420434B
:100E8000506090680B4C2040D1E902542C434D79BE
:100E900044EA450420439060D06A20F470000C7C42
:100EA000641EE4B2234340EA0350D06230BD000028
:100EB000FFFEF0FFFDF7F1FFF0B504460D46002000
:100EC0000021092D11DDE068A5F10A0606EB4607B1
:100ED000072606FA07F18843A5F10A0606EB46063F
:100EE00003FA06F10843E0600CE0206905EB4507D2
:100EF000072606FA07F1884305EB450603FA06F1D3
:100F000008432061072A0FDA606B561E06EB86073E
:100F10001F2606FA07F18843561E06EB860605FAD9
:100F200006F10843606322E00D2A0FDA206BD61F1A
:100F300006EB86071F2606FA07F18843D61F06EB45
:100F4000860605FA06F10843206310E0E06AA2F184
:100F50000D0606EB86071F2606FA07F18843A2F165
:100F60000D0606EB860605FA06F10843E062F0BDC1
:100F7000816841F008018160704721B1826842F4C4
:100F8000A002826003E0826822F4A00282607047BF
:100F9000816841F0040181607047000008B50121BB
:100FA000042002F01FFB0320ADF8000000208DF8A4
:100FB00003006946014800F0CAFD08BD0008014071
:100FC00010B5FFF7EBFF00F001F810BD00B591B0D0
:100FD0000121084602F0E6FA0121480202F002FB74
:100FE000364800F093F936480690364807900020BE
:100FF00008900220099000200A9080200B90400069
:101000000C9080000D9020200E9000020F90002088
:10101000109006A9294800F01FFA0121274800F086
:1010200069F90020019001208DF808008DF8090071
:101030004FF4602003900020049002208DF81400EB
:1010400001A91F484C38FFF70FFF4FF4404002F052
:101050009DFA05230122002119484C38FFF72CFF87
:1010600005230222012116484C38FFF725FF0121F4
:1010700013484C38FFF7D8FE012111484C38FFF7D0
:10108000C8FE0F484C38FFF773FF00BF0C484C38C0
:10109000FFF7DFFE0028F9D109484C38FFF778FF49
:1010A00000BF07484C38FFF7CAFE0028F9D10121DC
:1010B00003484C38FFF761FF11B000BD0800024043
:1010C0004C240140480B002010B50F4840790028FF
:1010D00004DD0D484079401E0B4948710B480078EB
:1010E00088B10A480078012802D0022807D103E01D
:1010F000012002F04FFE02E002F0FCFD00BF00BF45
:1011000000200249087010BD900B00201C2E00200A
:1011100010B50446012005490860204604F024FB70
:1011200000200349C1F8A00110BD0000A0812142A8
:101130000080214200BFFEE710B5012000F038FE1C
:1011400004463CB13848007820B938480470012082
:101150003549087064B134480078012808DB32480A
:1011600000781E2804DC30480078401C2E490870A6
:10117000002C38D12C480078002834DD2A4800782B
:101180001E2830DA29480078012804D0022810D01F
:10119000032822D11DE026A003F0D8FC27480079BF
:1011A00018B100202549087102E001202349087187
:1011B00014E023A003F0CAFC2448006820B10020FA
:1011C00022498031086003E0012020498031086015
:1011D00004E01FA003F0BAFC00E000BF00BF002045
:1011E000114908701EE0ECB90F4800781E2819DB81
:1011F0000E480078012804D0022806D003280CD11C
:1012000007E016A003F0A2FC08E017A003F09EFC84
:1012100004E018A003F09AFC00E000BF00BF00202B
:101220000149087010BD00009B0B00209C0B0020A2
:101230004B6579315F53686F72740A00900B002020
:101240004B6579325F53686F72740A0024812142C2
:101250004B6579335F53686F72740A004B6579315F
:101260005F4C6F6E670A00004B6579325F4C6F6EA2
:10127000670A00004B6579335F4C6F6E670A0000A8
:1012800008B50121042002F0ADF90820ADF80000F6
:1012900010208DF8030003208DF8020069460448F1
:1012A00000F055FC0821024800F02FFD08BD0000A9
:1012B0000008014008B50820ADF8000048208DF86E
:1012C00003006946014800F042FC08BD00080140E7
:1012D00008B50820ADF8000010208DF803000320A9
:1012E0008DF802006946024800F031FC08BD00009C
:1012F0000008014021B1026842F00102026004E0EE
:1013000002684FF6FE731A400260704701684FF69C
:10131000FE72114001600021016041608160C16086
:101320004B49884208D14A490839496841F00F01C0
:10133000474A083A51608AE045491431884208D149
:1013400043490839496841F0F001414A083A51607F
:101350007DE03F492831884208D13D490839496834
:1013600041F470613A4A083A516070E038493C31C2
:10137000884208D136490839496841F47041344AF5
:10138000083A516063E032495031884208D130490F
:101390000839496841F470212D4A083A516056E0F5
:1013A0002B496431884208D129490839496841F4F8
:1013B0007001274A083A516049E02549783188424E
:1013C00008D123490839496841F07061204A083A38
:1013D00051603CE01F49884206D1011F096841F075
:1013E0000F01021F116032E01A491431884208D1FE
:1013F0001849091F096841F0F001164A121F1160CF
:1014000025E014492831884208D11249091F09688A
:1014100041F470610F4A121F116018E00D493C3110
:10142000884208D10B49091F096841F47041094AF3
:10143000121F11600BE007495031884207D105495E
:10144000091F096841F47021024A121F1160704798
:10145000080002400804024010B50022026847F666
:10146000F0739A430C6A8B6823430C6923434C69DD
:1014700023438C692343CC6923434C6A23438C6AFE
:1014800023431A430260CB6843600B6883604B6858
:10149000C36010BD7047000030B58BB000200790CE
:1014A000089009900A900125354B364A36A13CA098
:1014B00003F04CFB07A8002102910391CDE9041031
:1014C00000912B022E4A01912E492FA000F0F2FE2E
:1014D000002843D1089A91B2079800F03BFAFA200D
:1014E00000F000F90446002C2FD0204601F0AAFBA2
:1014F00002282AD1204601F076FA062820D2DFE819
:1015000000F0030B0F13171B2DA003F01FFB00258A
:1015100000203049087117E02FA003F017FB13E0FB
:1015200034A003F013FB0FE03BA003F00FFB0BE034
:1015300041A003F00BFB07E048A003F007FB03E02A
:1015400051A003F003FB00BF00BF22480079401CFC
:101550002049087107A800F0E1FC07E01D48007968
:10156000401C1C4908714FA003F0F0FA194800799B
:10157000022801DD02F098FD28460BB030BD0000C6
:101580007465000830650008736D61727464657677
:1015900069636526613159786F626730784D4B0019
:1015A00050524F49443A20257309415549463A2043
:1015B00025730944455649443A25730D0A00000035
:1015C000546970733A09C1ACBDD3B3C9B9A60D0A49
:1015D000000000001C2E00205741524E3A09C1ACB9
:1015E000BDD3CAA7B0DCA3BAD0ADD2E9B4EDCEF377
:1015F0000D0A00005741524E3A09C1ACBDD3CAA7EB
:10160000B0DCA3BAB7C7B7A8B5C4636C69656E741C
:1016100069640D0A000000005741524E3A09C1ACFE
:10162000BDD3CAA7B0DCA3BAB7FECEF1C6F7CAA72E
:10163000B0DC0D0A000000005741524E3A09C1AC1F
:10164000BDD3CAA7B0DCA3BAD3C3BBA7C3FBBBF24D
:10165000C3DCC2EBB4EDCEF30D0A00005741524E8D
:101660003A09C1ACBDD3CAA7B0DCA3BAB7C7B7A803
:10167000C1B4BDD328B1C8C8E7746F6B656EB7C776
:10168000B7A8290D0A0000004552523A09C1ACBD65
:10169000D3CAA7B0DCA3BACEB4D6AAB4EDCEF30DAC
:1016A0000A0000005741524E3A094D5154545F50C0
:1016B00061636B6574436F6E6E6563742046616928
:1016C0006C65640D0A00000010B54FF4807103488A
:1016D000FEF76BFD00200249088010BD1C2500208C
:1016E0006A0B002070B50546002400BF00F054F9D5
:1016F00080B90DA10E48FEF76FFD044654B13A21A2
:101700002046FEF77BFD044614B1641C204670BDE4
:101710000020FCE7052004F027F8281EA5F10101B0
:101720008DB2E3D100BFF2E74950442C0000000025
:101730001C25002000B5A1B0FA2004F015F8FFF731
:10174000C3FF32A003F002FA03E04FF4967004F0F6
:101750000BF8C8222FA130A000F0D4F80028F4D153
:101760002FA003F0F3F903E04FF4967003F0FCFFB1
:10177000C82228A12DA000F0C5F80028F4D12FA080
:1017800003F0E4F903E04FF4967003F0EDFFC82294
:1017900020A12DA000F0B6F80028F4D12EA003F06F
:1017A000D5F9802101A8FEF700FD2DA32FA230A1BD
:1017B00001A803F0DBF903E04FF4967003F0D4FFC7
:1017C000C82231A101A800F09DF80028F4D130A072
:1017D00003F0BCF9802101A8FEF7E7FC40F25B733F
:1017E0002EA23AA101A803F0C1F903E04FF4FA7068
:1017F00003F0BAFFC8223CA101A800F083F800283A
:10180000F4D13BA003F0A2F921B000BD41540D0A70
:10181000000000004F4B000041540D0A0D00000075
:1018200043574D4F44450D0A0000000041542B43DF
:10183000574D4F44453D310D0A00000041542B43A4
:1018400057444843500D0A0041542B4357444843E2
:10185000503D312C310D0A0043574A41500D0A00CA
:101860003132333435363738000000004E455400ED
:1018700041542B43574A41503D222573222C2225A7
:1018800073220D0A00000000474F54204950000009
:1018900043495053544152540D0A0000696F742D4E
:1018A00030367A30306178646867666B32346E2E19
:1018B0006D7174742E696F746875622E616C6979CC
:1018C000756E63732E636F6D0000000041542B43EF
:1018D000495053544152543D22544350222C222506
:1018E00073222C25640D0A00434F4E4E454354008D
:1018F0004553503832363620496E6974204F4B0DAF
:101900000A0000002DE9F04105460E46144628461F
:10191000FEF77EFC87B23946284603F0E1F80FE077
:1019200000F03AF848B931460948FEF755FC20B1B5
:10193000FFF7CAFE0020BDE8F0810A2003F014FF83
:10194000201EA4F101018CB2EAD10120F3E70000CE
:101950001C25002030B589B005460C46FFF7B4FEC3
:10196000224608A101A803F001F9C82209A101A893
:10197000FFF7C8FF18B92146284603F0B1F809B0AF
:1019800030BD000041542B43495053454E443D2542
:10199000640D0A003E0000000A48008808B90120D2
:1019A00070470848008808490988884203D1002008
:1019B00004490880F4E703480088034908800120AF
:1019C000EEE700006A0B00206C0B0020044900E0E9
:1019D000521C11F8013B002BFAD15008704700004F
:1019E0008C0A002010B50446062C22D2DFE804F051
:1019F00003080D12171C0121084601F0E3FD18E051
:101A00000121022001F0DEFD13E00121042001F09C
:101A1000D9FD0EE00121082001F0D4FD09E00121EB
:101A2000102001F0CFFD04E00121202001F0CAFDCB
:101A300000BF00BF10BD70B504460D4616462046D7
:101A4000FFF7D0FF32462946204600F05AF82046DC
:101A500000F001F870BD3EB50446204602F032FDAC
:101A60000546062C33D2DFE804F0030B131B232AB0
:101A70004FF47A70ADF804004820ADF8000026E07D
:101A800040F2E730ADF804004720ADF800001EE05A
:101A90004FF47A70ADF804004820ADF8000016E06D
:101AA00040F2E630ADF804004620ADF800000EE04C
:101AB0005920ADF804004F20ADF8000007E040F2D7
:101AC000E730ADF804004720ADF8000000BF00BFCC
:101AD0000020ADF80600ADF802008DF80800694658
:101AE000284602F09DFC0121284602F06DFC0122EF
:101AF0001146284602F08BFC0021284602F06AFCC1
:101B00003EBDF8B506460C4615464FF4A06001F000
:101B1000A1F926B1012E06D0022E0CD107E01C201F
:101B20008DF8000007E01D208DF8000003E01E2066
:101B30008DF8000000BF00BF8DF801408DF8025005
:101B400001208DF80300684601F04CF9F8BD2DE93D
:101B5000F041024600250026002000230024002733
:101B600091F803C00CF00F0591F803C00CF0100CB5
:101B7000BCF1000F03D091F802C04CEA050591F8C2
:101B800000C0BCF1000F31D0146800202BE04FF0F2
:101B9000010C0CFA00F3B1F800C00CEA03069E42F7
:101BA00020D183004FF00F0C0CFA03F7BC4305FA69
:101BB00003FC4CEA040491F803C0BCF1280F06D1E1
:101BC0004FF0010C0CFA00FCC2F814C00AE091F8C6
:101BD00003C0BCF1480F05D14FF0010C0CFA00FC1A
:101BE000C2F810C0401C0828D1D31460B1F800C05E
:101BF000BCF1FF0F34DD546800202EE000F1080C2A
:101C00004FF0010808FA0CF3B1F800C00CEA030623
:101C10009E4221D183004FF00F0C0CFA03F7BC4316
:101C200005FA03FC4CEA040491F803C0BCF1280F48
:101C300005D100F1080C08FA0CF8C2F8148091F8EC
:101C400003C0BCF1480F07D100F1080C4FF00108A8
:101C500008FA0CF8C2F81080401C0828CED3546053
:101C6000BDE8F081F0B50A460023002400210025DC
:101C700000F00046B6F1004F02D11D4EF16901E0BF
:101C80001B4E7168C0F3034583B200F44016B6F5ED
:101C9000401F08D121F07061154E766826F07066FD
:101CA000134F7E6012E000F48016B6F5801F06D157
:101CB000032606FA05F4A14341F0706106E0460DE3
:101CC000360103FA06F6B14341F0706122B1460DC8
:101CD000360103FA06F6314300F00046B6F1004F34
:101CE00002D1034EF16101E0014E7160F0BD0000D0
:101CF000000001400246002093680B400BB1012018
:101D000000E000207047416170470161704700BFEB
:101D1000FEE7000010B54FF4A06001F09BF8FFF75C
:101D200055FE1E49086003F0FDFC0122002102203F
:101D3000FFF781FE4FF4E13002F02CFE4FF4E1306A
:101D400002F078FE02F0F8F900F0AEF800F082F848
:101D5000FFF736F900F0C4F801F0BEFCFFF790FA87
:101D600001F046F9002001F0FEF8002001F009F929
:101D700002E0052003F0F8FC09490A4801F0CEFD15
:101D80000128F6D101F0EAF8002007490860074968
:101D9000C1F89C0104490C39086010BD380B0020C3
:101DA000900B0020880B0020A4812142008021425A
:101DB00010B5044614B10120244908702348007866
:101DC00060B34FF480512248FFF794FF58B14FF4AD
:101DD00000511F48FFF78EFF28B14FF480411C4887
:101DE000FFF788FFD0B90020184908704FF48051E0
:101DF0001748FFF77FFF08B9012010BD4FF40051CD
:101E00001348FFF777FF08B90220F6E74FF4804147
:101E10000F48FFF76FFFB0B90320EEE74FF4805192
:101E20000B48FFF767FF01280DD141030848FFF772
:101E300061FF012807D181030548FFF75BFF0128F7
:101E400001D1024908700020D7E7000018000020E7
:101E5000000C014008B50121082001F0C3FB4FF43C
:101E60008050ADF8000048208DF8030069460D4809
:101E7000FFF76DFE4FF40050ADF8000048208DF8DC
:101E8000030069460748FFF762FE4FF48040ADF853
:101E9000000048208DF8030069460248FFF757FE0E
:101EA00008BD0000000C014008B50121182001F018
:101EB00099FB4FF40050ADF8000010208DF803009E
:101EC00003208DF8020069460348FFF740FE00201A
:101ED0000249086008BD000000100140B401224220
:101EE00008B501210C2001F07DFB0420ADF80000B5
:101EF00048208DF8030069460648FFF728FE202099
:101F0000ADF8000048208DF8030069460248FFF74D
:101F10001EFE08BD00080140000C014010B504463B
:101F2000207B012802D1206802F034FE00202060CE
:101F30006060A060207310BD0246002301230DE005
:101F400002F07F000870D2092AB1087840F08000C2
:101F50000870491C01E0184670475B1C042BEFDD3C
:101F60004FF0FF30F8E7000070B5C0B004464FF402
:101F700080716846FEF719F964A0008820804FF44C
:101F800080716846FEF711F961498868FEF772FCB6
:101F900005462A460B465FA1684602F0E7FD694602
:101FA0002046FEF70DF94FF480716846FEF7FDF804
:101FB0005749C868FEF75EFC05462A460B4659A1FC
:101FC000684602F0D3FD69462046FEF7F9F84FF463
:101FD00080716846FEF7E9F84D48028A55A16846C7
:101FE00002F0C4FD69462046FEF7EAF84FF480711E
:101FF0006846FEF7DAF84648428A51A1684602F080
:10200000B5FD69462046FEF7DBF84FF4807168465F
:10201000FEF7CBF84E4842884EA1684602F0A6FD76
:1020200069462046FEF7CCF84FF480716846FEF70B
:10203000BCF8474882884BA1684602F097FD694684
:102040002046FEF7BDF84FF480716846FEF7ADF804
:102050003F48C28847A1684602F088FD694620468D
:10206000FEF7AEF84FF480716846FEF79EF84548DB
:102070000068C2B244A1684602F078FD6946204675
:10208000FEF79EF84FF480716846FEF78EF84248DE
:10209000D0F81C01C2B241A1684602F067FD694652
:1020A0002046FEF78DF84FF480716846FEF77DF804
:1020B00034480C300068C2B23BA1684602F056FDBD
:1020C00069462046FEF77CF84FF480716846FEF7BB
:1020D0006CF83948427939A1684602F047FD6946F3
:1020E0002046FEF76DF84FF480716846FEF75DF804
:1020F00036A1684602F03AFD69462046FEF760F8D0
:102100002046FEF785F8C0B240B070BD7B000000ED
:102110001C2E002022746D6570223A22252E316615
:10212000222C00002268756D69223A22252E316624
:10213000222C0000226D7132223A222564222C00CA
:10214000226D71313335223A222564222C000000A1
:10215000880B002022746D65705F76223A22256418
:10216000222C0000226D71325F76223A22256422F1
:102170002C000000226D713133355F76223A222522
:1021800064222C00188121422266697265223A225B
:102190002564222C00000000008021422266616E2E
:1021A000223A222564222C002272656C6179223A3F
:1021B000222564222C000000900B00202270656F05
:1021C000706C65223A222564220000007D00000028
:1021D00070B504460E460025206898B9012020738A
:1021E000304602F005FD20602068E0B1002060600C
:1021F000A66003E00020216848556D1CA068A84235
:10220000F8D810E00220207303E000202168485530
:102210006D1CA068A842F8D800206060A068B04299
:1022200001D20020206070BD2DE9FF5F07460D46FA
:1022300090463846FDF7ECFF86B22846FDF7E8FFEA
:102240001FFA80FA4FF00009B01D02F0D1FC0446DD
:102250001CB9012004B0BDE8F09FB11D2046FDF778
:10226000A4FF12A0016821608088A0803246394610
:102270002046FDF7E2FF2846FDF7CAFF834601200E
:10228000002100915B462A46CDE9020801912146D2
:102290000A2000F05FF910B94FF0000901E04FF09B
:1022A0000109204602F076FC4846D3E724637273A6
:1022B000702F00002DE9FF4F83B082468B46914678
:1022C000159C0025002002900F2701904846FDF73D
:1022D0009FFF0FFA80F8B9F1000F03D1012007B07A
:1022E000BDE8F08F08F10200384487B2109808B1B9
:1022F00045F00205129878B145F004051298FDF7F3
:1023000087FFC0B202901398FDF782FF0146029842
:10231000001D0844384487B2119820B1012804D028
:10232000022808D104E000BF07E045F00C0504E0F6
:1023300045F0140501E00220D1E700BF149808B170
:1023400045F02405BAF1000F02D0BBF1000F01D116
:102350000320C4E745F0C0055046FDF759FF064687
:102360005846FDF755FF3044001D384487B23946C2
:102370002046FFF72DFF206808B90420AFE7394653
:102380002068FDF712FF10216268501C6060206811
:102390008154D4E90023D118781FFFF7CDFD00B296
:1023A00001900198002804DA2046FFF7B7FD0520C8
:1023B00095E7616801980844606000216268501CDC
:1023C00060602068815404216268501C606020684D
:1023D00081544D216268501C6060206881545121F5
:1023E0006268501C60602068815454216268501CEF
:1023F0006060206881546268501C6060206881546D
:1024000004216268501C6060206881546168481C27
:102410006060206845540698010A6268501C60603C
:10242000206881540698C1B26268501C60602068C0
:102430008154C8F307216268501C60602068815491
:102440006268501C6060206800F80280D4E90012C5
:10245000881842464946FDF7F0FE606840446060D7
:1024600005F00400B8B30026139808B938A01390FB
:102470001298FDF7CDFE86B2310A6268501C60608A
:10248000206881546268501C606020688654D4E9DA
:102490000012881832461299FDF7CFFE606830446A
:1024A00060601398FDF7B4FE86B2310A6268501C72
:1024B0006060206881546268501C606020688654A7
:1024C000D4E90012881832461399FDF7B6FE606809
:1024D0003044606000BF05F08000C8B15046FDF791
:1024E00097FE86B2310A6268501C60602068815491
:1024F0006268501C606020688654D4E90012881815
:1025000032465146FDF799FE60683044606000BF76
:1025100005F04000C8B15846FDF77AFE86B2310A90
:102520006268501C6060206881546268501C606062
:1025300020688654D4E90012881832465946FDF7BF
:102540007CFE60683044606000BF0020C7E6000089
:10255000000000002DE9FF4F83B083469046994666
:10256000139C002600250020029001900027BBF15B
:10257000000F03D1012007B0BDE8F08F00250AE06D
:102580000498405D232803D00498405D2B2801D196
:102590000220F0E76D1C0498405D0028F0D147F060
:1025A0003007119808B147F0010705EB0900861CB8
:1025B000109820B1012804D002280AD105E000BFFC
:1025C00009E047F00207B61C05E047F00407B61C17
:1025D00001E00320CFE700BF98F80000022822D1D5
:1025E0004FF0000A00BF50460AF1010A18F8000037
:1025F0007D28F8D1AAF1030A0AF107000290029897
:10260000A9EB000AF01CA0EB0A012046FFF7E0FD51
:10261000206808B90420AEE7F21CA2EB0A0120688A
:10262000FDF7C3FD0BE0F11C2046FFF7D1FD20684C
:1026300008B904209FE7F11C2068FDF7B6FD61682A
:10264000481C606020684754D4E900028118304675
:10265000FFF772FC01900198002804DA2046FFF78A
:102660005DFC052087E76168019808446060C5F358
:1026700007216268501C6060206881546268501CA9
:10268000606020688554D4E9001288182A460499AD
:10269000FDF7D3FD606828446060109860B14FEA90
:1026A0001B216268501C6060206881546268501C65
:1026B0006060206800F802B0B8F1000F19D098F8F7
:1026C000000002280BD1D4E9001288184146029A72
:1026D000FDF752FD616802980844606009E0D4E9A2
:1026E000001288184A464146FDF746FD6068484496
:1026F000606000203FE770B505460C460421204687
:10270000FFF766FD206808B9012070BD40216268AE
:10271000501C60602068815402216268501C606017
:102720002068815429126268501C606020688154BE
:102730006268501C6060206885540020E5E770B531
:1027400005460C4604212046FFF742FD206808B9E3
:10275000012070BD70216268501C60602068815447
:1027600002216268501C60602068815429126268EE
:10277000501C6060206881546268501C6060206852
:1027800085540020E5E770B505460C460421204637
:10279000FFF71EFD206808B9012070BD5021626856
:1027A000501C60602068815402216268501C606087
:1027B0002068815429126268501C6060206881542E
:1027C0006268501C6060206885540020E5E770B5A1
:1027D00005460C4604212046FFF7FAFC206808B99C
:1027E000012070BD62216268501C606020688154C5
:1027F00002216268501C606020688154291262685E
:10280000501C6060206881546268501C60602068C1
:1028100085540020E5E72DE9FF5F8046174699467D
:102820000E9C0026B246B3460025B8F1000F03D136
:10283000012004B0BDE8F09F0BE057F8250008B96F
:102840000220F6E757F82500FDF7E2FC0644681C75
:10285000C5B24D45F1DB09EB4900801C00EB060ACF
:102860000AF105012046FFF7B3FC206808B90320F0
:10287000DFE782216268501C606020688154D4E9DF
:10288000000281185046FFF757FB0FFA80FBBBF19F
:10289000000F04DA2046FFF741FB0420C9E7606817
:1028A000584460604FEA18216268501C60602068DC
:1028B00081546268501C6060206800F80280002526
:1028C00024E057F82500FDF7A3FC0646C6F30721D0
:1028D0006268501C6060206881546268501C6060AF
:1028E00020688654D4E90023D01857F825103246C2
:1028F000FDF7A3FC6068304460600198C1B2626873
:10290000501C606020688154681CC5B24D45D8DBFE
:1029100000208EE7F0B504460D4626460123002030
:102920001060002114E0775C07F07F07106807FB58
:1029300003001060705C00F0800008B9481CF0BD16
:10294000DB01B3F5001F02D36FF00100F7E7491C6C
:10295000A942E8DB4FF0FF30F1E72DE9F84380466C
:102960000C4615461E462F2108F10600FDF746FCD1
:1029700007460020009017B90120BDE8F8837F1CAE
:102980006A46042108F10100FFF7C4FF252002F088
:102990002FF92060206808B90220EEE72521206881
:1029A000FDF703FC242239462068FDF7E5FB2437B8
:1029B00000982C3830803188481C02F019F92860C2
:1029C000286820B9206802F0E5F80320D5E73288AE
:1029D000511C2868FDF7E9FB328839462868FDF765
:1029E000CBFB0020C9E701464878022801D001202E
:1029F0007047887810B18878012801D1C878F7E746
:102A0000FF20F5E72DE9FC5F81460D4614461E4682
:102A1000DDE90C8B99F8000000F00F0A002001900E
:102A20000AF008000090CAF341008BF8000001AAE8
:102A3000042109F10100FFF76DFF4844471C01988C
:102A4000022802D30AF0010010B1FF20BDE8FC9F6C
:102A50007878397840EA012020802088801C01990C
:102A6000884201D9FF20F1E754A1B81CFDF7B4FB5F
:102A700008B10F20EAE79BF8000020B101283DD003
:102A8000022877D13BE0009808B1FF20DEE72188DB
:102A9000481C02F0ADF82860286808B9FF20D5E787
:102AA0002288511C2868FDF780FB2288B91C286801
:102AB000FDF762FB0198801E2188401AA8F80000EB
:102AC000B8F80010481C02F093F83060306820B964
:102AD000286802F05FF8FF20B8E7B8F80020511C22
:102AE0003068FDF762FBB8F80020B4F800C0BB1CEA
:102AF0000CEB03013068FDF73FFB4FE000BF20887F
:102B0000801C0199884201D9FF209FE72088C01CC2
:102B1000395C2088801C385C41EA00210E980180D5
:102B20000E9808B9FF2091E72188481C02F060F850
:102B30002860286808B9FF2088E72288511C286887
:102B4000FDF733FB2288B91C2868FDF715FB0198B7
:102B5000001F2188401AA8F80000B8F80010481C8F
:102B600002F046F83060306828B9286802F012F8A0
:102B7000FF206BE710E0B8F80020511C3068FDF72B
:102B800014FBB8F80020B4F800C03B1D0CEB0301A7
:102B90003068FDF7F1FA01E0FF2057E700BF2B2175
:102BA0002846FDF72BFB20B923212846FDF726FBFD
:102BB00008B1FF204AE7002048E70000246372655F
:102BC0007100000001464878022801D001207047BA
:102BD000887820B9C8780A2801D10020F7E70120B9
:102BE000F5E701464878022801D00120704788782F
:102BF00020B9C8780A2801D10020F7E70120F5E7BD
:102C000001464878022801D001207047887820B911
:102C1000C8780A2801D10020F7E70120F5E702462D
:102C20005078022801D0012070479078B0EB112F26
:102C300005D1D078CBB2984201D10020F4E7012031
:102C4000F2E70000F8B50446FF2720780511012DB2
:102C500001DB0E2D01DD3846F8BD032D24D1002007
:102C600000906A460421601CFFF754FE2044461C75
:102C70000098022803D3207800F0010008B1FF205B
:102C8000EAE77078317840EA0120801C0099884298
:102C900001D9FF20E0E706A1B01CFDF79DFA08B1BD
:102CA0000F2700E0032700E02F463846D4E7000056
:102CB00024637265710000000146FF208A78A2B982
:102CC000CA78142A11D10A7932B1012A05D0022A10
:102CD00004D0802A06D103E000BF00BF002003E03B
:102CE000012001E0022000BF00BF70470146012023
:102CF0008A781AB9CA781E2A00D10020704700BF0E
:102D0000FEE7000010B5A0B0044680216846FDF73C
:102D10004CFA11A00088208080216846FDF745FA12
:102D20000E4802780EA1684601F020FF6946204651
:102D3000FDF746FA80216846FDF737FA0DA168468F
:102D400001F014FF69462046FDF73AFA2046FDF7E8
:102D50005FFAC0B220B010BD7B000000900B0020D5
:102D600022636865636B5F646576696365223A22F6
:102D7000256422007D00000010B5A0B0044680212B
:102D80006846FDF712FA11A000882080802168466D
:102D9000FDF70BFA01220EA1684601F0E7FE694635
:102DA0002046FDF70DFA80216846FDF7FEF90BA1DC
:102DB000684601F0DBFE69462046FDF701FA204631
:102DC000FDF726FAC0B220B010BD00007B00000065
:102DD0002274696D65223A22256422007D0000007C
:102DE0007047000070B5002100230F22C47804B39F
:102DF000154C246804F4E064C4F5E064210AC1F1D0
:102E00000403CA40447804FA03F18478144021434F
:102E100009010E4C0678A155047804F01F05012421
:102E2000AC4005786D11AD0005F1E025C5F8004115
:102E300009E0047804F01F050124AC40044D067835
:102E4000761145F8264070BD0CED00E000E400E08E
:102E500080E100E002490143024A1160704700002E
:102E60000000FA050CED00E000B58DB000F076F83A
:102E700021A1684601F07AFE6A460021084600F06A
:102E800059F921A221A1684601F070FE6A4602218B
:102E9000002000F04FF922A224A1684601F066FE4E
:102EA0006A460421002000F045F925A1684601F09A
:102EB0005DFE6A460621002000F03CF9FEF73AFC70
:102EC00003E04FF4967002F04FFCFEF7E5FA00289D
:102ED000F7D103E04FF4967002F046FC01211D4843
:102EE00001F056F80028F5D13C201B49087000F08D
:102EF00035F80DB000BD00002DC7EBB4F2BFAA57E6
:102F0000494649C8C8B5E3004E4554002DC3FBB33C
:102F1000C63A2573202020202020202020000000F9
:102F20003132333435363738000000002DC3DCC26F
:102F3000EB3A2573202020202020202020000000B4
:102F40002DC6B5C2CA3A20322E342047487A2020F6
:102F50002000000000000020840B002010B500209D
:102F600000F025F810BD10B504461CB90021A620BC
:102F700000F092F9012C03D10021A72000F08CF978
:102F800010BD10B504463CB90021C82000F084F9FA
:102F90000021A12000F080F9012C07D10021C020E0
:102FA00000F07AF90021A02000F076F910BD70B58C
:102FB0000646002419E004F1B001C8B2002100F077
:102FC0006BF90021084600F067F90021102000F09D
:102FD00063F9002505E00121304600F05DF9681C29
:102FE000C5B2822DF7DB601CC4B2082CE3DB70BDD8
:102FF00008B50121042000F0F5FA3020ADF80000FA
:1030000010208DF8030003208DF802006946474820
:10301000FEF79DFD30214548FEF777FE012108208F
:1030200000F0E0FA0320ADF8000010208DF8030056
:1030300003208DF8020069463D48FEF788FD032114
:103040003B48FEF762FE0021AE2000F025F900218A
:10305000084600F021F90021102000F01DF90021A0
:10306000402000F019F90021812000F015F900211D
:10307000CF2000F011F90021A12000F00DF900216E
:10308000C82000F009F90021A62000F005F9002170
:10309000A82000F001F900213F2000F0FDF80021F8
:1030A000D32000F0F9F80021084600F0F5F80021DF
:1030B000D52000F0F1F80021802000F0EDF800218B
:1030C000D92000F0E9F80021F12000F0E5F8002116
:1030D000DA2000F0E1F80021122000F0DDF80021F4
:1030E000DB2000F0D9F80021402000F0D5F80021C5
:1030F000202000F0D1F80021022000F0CDF80021BE
:103100008D2000F0C9F80021142000F0C5F800213E
:10311000A42000F0C1F80021A62000F0BDF8002195
:10312000AF2000F0B9F8FFF719FF08BD0008014013
:10313000000C01402DE9F047074688461646002559
:1031400084E03078A02845DD00253CE0702F04DDC8
:10315000002708F1020000F0FF0830783E4911F81E
:10316000151088422ED17078012101EB45013A4AB1
:10317000515C884226D14146384600F077F8002459
:1031800007E004EB4511354A505C012100F084F85A
:10319000641C102CF5D308F10100C1B2384600F0D0
:1031A00065F8002408E004EB451110312B4A505C0F
:1031B000012100F071F8641C102CF4D307F1100009
:1031C000C7B204E06D1C264800688542BED300BF2C
:1031D000B61C3BE07A2F04DD002708F1020000F066
:1031E000FF0831781F48FDF709F88146B9F1000F53
:1031F0002BD04146384600F039F800240AE099F80F
:103200000010203904EB0111174A505C012100F035
:1032100043F8641C082CF2D308F10100C1B238460F
:1032200000F024F800240BE099F80010203904EB9A
:10323000011108310C4A505C012100F02DF8641C8A
:10324000082CF1D307F10800C7B2761C30780028AB
:103250007FF477AFBDE8F0878C0A00200C060020D1
:10326000380B0020D50A00201C00002070B5044651
:103270000D4605F1B001C8B2002100F00DF8102193
:1032800041EA1410002100F007F804F00F000021BB
:1032900000F002F870BD000070B504460E4626B17D
:1032A00001211848FEF731FD03E001211548FEF722
:1032B0002AFD02211348FEF726FD002517E0102104
:1032C0001148FEF720FD04F0800020B120210E48B7
:1032D000FEF71BFD03E020210B48FEF714FD102133
:1032E0000948FEF712FD6006040E681CC5B2082DE1
:1032F000E5DB02210348FEF708FD01210148FEF746
:1033000004FD70BD000C01400008014070B5C0B064
:1033100004464FF480716846FCF747FF6AA00088B6
:10332000208069462046FCF74BFF4FF480716846C9
:10333000FCF73BFF65A1684601F018FC6946204692
:10334000FCF73EFF4FF480716846FCF72EFF69A141
:10335000684601F00BFC69462046FCF731FF4FF44C
:1033600080716846FCF721FF65A1684601F0FEFB0D
:1033700069462046FCF724FF4FF480716846FCF74D
:1033800014FF62498868FDF775FA05462A460B4620
:103390005FA1684601F0EAFB69462046FCF710FF92
:1033A0004FF480716846FCF700FF5849C868FDF784
:1033B00061FA05462A460B4659A1684601F0D6FB3C
:1033C00069462046FCF7FCFE4FF480716846FCF726
:1033D000ECFE4E48028A56A1684601F0C7FB6946DA
:1033E0002046FCF7EDFE4FF480716846FCF7DDFEE9
:1033F0004648428A51A1684601F0B8FB694620461A
:10340000FCF7DEFE4FF480716846FCF7CEFE4E48B6
:103410000068C2B24DA1684601F0A8FB694620468B
:10342000FCF7CEFE4FF480716846FCF7BEFE4A48BA
:10343000D0F81C01C2B249A1684601F097FB694669
:103440002046FCF7BDFE4FF480716846FCF7ADFEE8
:103450003D480C300068C2B243A1684601F086FBCB
:1034600069462046FCF7ACFE4FF480716846FCF7D5
:103470009CFE4048427940A1684601F077FB6946CE
:103480002046FCF79DFE4FF480716846FCF78DFEE8
:103490003CA1684601F06AFB69462046FCF790FEB5
:1034A0004FF480716846FCF780FE36A1684601F053
:1034B0005DFB69462046FCF783FE2046FCF7A8FE2C
:1034C000C0B240B070BD00007B000000226D65748A
:1034D000686F64223A227468696E672E736572762B
:1034E0006963652E70726F70657274792E7365747E
:1034F000222C0000226964223A2231222C00000092
:1035000022706172616D73223A7B00001C2E0020D4
:1035100022746D6570223A252E31662C0000000061
:103520002268756D69223A252E31662C0000000054
:10353000226D7132223A25642C000000226D713117
:103540003335223A25642C001881214222666972A3
:1035500065223A25642C0000008021422266616EBB
:10356000223A25642C0000002272656C6179223AAF
:1035700025642C00900B00202270656F706C652212
:103580003A2564007D0000007047000001460020DD
:10359000034A506820F440400843506070470000E0
:1035A0000010024029B1064A52690243044B5A6195
:1035B00004E0034A52698243014B5A61704700009C
:1035C0000010024029B1064AD2690243044BDA6175
:1035D00004E0034AD2698243014BDA61704700007C
:1035E0000010024029B1064A92690243044B9A61D5
:1035F00004E0034A92698243014B9A6170470000DC
:103600000010024030B500210022002400232D4D7F
:103610006D6805F00C0121B1042905D0082923D1DA
:1036200005E0294D056022E0274D05601FE0254D8E
:103630006D6805F47012234D6D6805F48034022521
:1036400005EB92421CB9214D554305600BE01D4D21
:103650006D6805F400351DB11C4D5543056002E051
:10366000194D5543056002E0174D056000BF00BFCE
:10367000144D6D6805F0F0010909154D6B5C056886
:10368000DD4045600F4D6D6805F4E061090A104D9D
:103690006B5C4568DD4085600A4D6D6805F46051DE
:1036A000C90A0B4D6B5C4568DD40C560054D6D6812
:1036B00005F44041890B074D6B5CC568B5FBF3F51C
:1036C000056130BD0010024000127A0000093D0083
:1036D000560B0020660B002008B501210820FFF7DB
:1036E00081FF4FF40070ADF8000010208DF803004A
:1036F00003208DF8020069461248FEF728FA802060
:10370000ADF8000010208DF8030003208DF80200B2
:1037100069460C48FEF71BFA4020ADF80000102067
:103720008DF8030003208DF8020069460548FEF776
:103730000EFA4FF48070ADF8000069460148FEF7BC
:1037400006FA08BD000C014000B5022209490A48EA
:10375000006800F007FD02220649891C074800683E
:1037600000F000FD02220349091D0548006800F031
:10377000F9FC00BD8A0B00203C0B0020400B002010
:10378000440B002070B50025002424E000BF082170
:103790001348FEF7AFFA0028F9D0282002F00AF803
:1037A00008210F48FEF7A6FA01280DD100BF082115
:1037B0000B48FEF79FFA0128F9D0C4F10701012058
:1037C0008840C0B2054304E0C4F1070101208840ED
:1037D0008543601CC4B2082CD8DB284670BD0000AD
:1037E0000008014010B50446FDF772FD0821244889
:1037F000FEF789FA122001F0B7FF08212048FEF7F2
:1038000084FA1E2001F0D6FFFDF754FD08211C4864
:10381000FEF770FA80BB00BF08211948FEF76AFA6C
:103820000028F9D000BF08211548FEF763FA0128E7
:10383000F9D0FFF7A7FF2070FFF7A4FF6070FFF734
:10384000A1FFA070FFF79EFFE070FFF79BFF2071C4
:10385000FDF73EFD08210A48FEF757FA2078617807
:103860000844A1780844E17808442179884201D1CC
:10387000012010BD0020FCE7FFE70020F9E7000071
:10388000000801402DE9FC4782462148FFF7AAFFC6
:103890001F49C878FCF7C2FF06461E4A1E4BFCF7BC
:1038A00046FF04460D461A498878FCF7B7FF804664
:1038B00022462B46FCF794FECDE90001FDF71EF8E9
:1038C000CAF8080012494878FCF7A8FF0646114AD2
:1038D000114BFCF72CFF04460D460D490878FCF708
:1038E0009DFF804622462B46FCF77AFECDE900017B
:1038F000FDF704F8CAF80C0002F08AF8AAF81000E4
:1039000002F07CF8AAF812000120BDE8FC87000054
:10391000960B00207B14AE47E17A843F70B50546D4
:103920000C46FFF711FF00202070012070BD000041
:1039300070B58CB006460020089009900A900B9054
:1039400007900690059004900024039000253046CF
:10395000FFF778F90446E01E0D2870D2DFE800F08A
:1039600028707B93ADCDB5CDC1CDCDCD070004ABD7
:1039700007AA06A93046FEF7F0FF0546BDB9BDF817
:1039800010306BA0DDE9061201F0E0F808AADDE9CD
:103990000601FEF749FC50B96EA001F0D7F8099A6C
:1039A00091B20898FDF7D6FF08A8FEF7B7FAA7E08E
:1039B0006E4803A904AA07ABCDE90021029005AA2D
:1039C00006A93046FFF71EF80546002D36D1BDF892
:1039D00010000090BDF8142065A0DDE9061301F089
:1039E000B5F89DF80C00012802D0022824D111E07E
:1039F00008A95E480088FEF77EFE50B96BA001F072
:103A0000A5F8099A91B20898FDF7A4FF08A8FEF757
:103A100085FA12E008A955480088FEF7B4FE50B9AF
:103A200068A001F093F8099A91B20898FDF792FF07
:103A300008A8FEF773FA00E000BF00BF60E05CE09A
:103A40003046FFF7BFF810B964A001F07FF83C20C2
:103A50006A49087054E03046FFF7D2F890B968A080
:103A600001F074F808A90A20FEF7B1FE50B96AA067
:103A700001F06CF8099A91B20898FDF76BFF08A85D
:103A8000FEF74CFA3CE0394801883046FFF7C7F8AA
:103A900090B967A001F05AF808A90A20FEF74FFE76
:103AA00050B969A001F052F8099A91B20898FDF74F
:103AB00051FF08A8FEF732FA22E03046FFF791F8EE
:103AC00010B968A001F042F81AE03046FFF7F4F8A8
:103AD00018B96AA001F03AF802E06FA001F036F8D8
:103AE0000EE03046FFF702F918B972A001F02EF887
:103AF00002E077A001F02AF802E04FF0FF3500BFA6
:103B000000BFFDF7E1FD681C08B90CB070BD079857
:103B100010B1079801F0FCFE0F2C01D0032C05D149
:103B2000069801F037F8079801F034F800BFECE789
:103B3000636D6469643A2025732C207265713A20A4
:103B400025732C207265715F6C656E3A2025640DBB
:103B50000A000000546970733A0953656E6420438B
:103B60006D64526573700D0A00000000860B002022
:103B7000746F7069633A2025732C20746F706963C9
:103B80005F6C656E3A2025642C207061796C6F61E2
:103B9000643A2025732C207061796C6F61645F6CCE
:103BA000656E3A2025640D0A0000000054697073A8
:103BB0003A0953656E64205075626C69736841639D
:103BC0006B0D0A00546970733A0953656E64205096
:103BD00075626C6973685265630D0A00546970738D
:103BE0003A094D515454205075626C6973682053E2
:103BF000656E64204F4B0D0A00000000840B00200E
:103C0000546970733A09526576205075626C697315
:103C1000685265630D0A0000546970733A09536570
:103C20006E64205075626C69736852656C0D0A0091
:103C3000546970733A09526576205075626C6973E5
:103C40006852656C0D0A0000546970733A09536537
:103C50006E64205075626C697368436F6D700D0AF5
:103C600000000000546970733A095265762050755F
:103C7000626C697368436F6D700D0A0054697073EC
:103C80003A094D51545420537562736372696265E9
:103C9000204F4B0D0A000000546970733A094D51D2
:103CA0005454205375627363726962652045727261
:103CB0000D0A0000546970733A094D51545420554F
:103CC0006E537562736372696265204F4B0D0A0013
:103CD000546970733A094D51545420556E537562AE
:103CE000736372696265204572720D0A00000000FC
:103CF0007047000010B5C8B0002044904590469031
:103D0000479000244FF4807104A8FCF74EFA04A8F1
:103D1000FFF7FCFA0446002C19D044A80121002228
:103D2000CDE90012234604AACDE9021009A10A2018
:103D3000FEF710FC40B9459A91B24498FDF70AFE8F
:103D400044A8FEF7EBF802E010A000F0FFFE48B038
:103D500010BD00002F7379732F613159786F62673E
:103D600030784D4B2F736D6172746465766963654D
:103D70002F7468696E672F6576656E742F70726F29
:103D800070657274792F706F737400005741524ED2
:103D90000D0A000030B5C9B0044600204590469099
:103DA0004790489000254FF4807105A8FCF7FDF975
:103DB000012C06D0022C09D0032C0CD0042C14D1D9
:103DC0000EE005A8FEF7D0F805460FE005A8FEF7BF
:103DD000D3FF05460AE005A8FEF794FF054605E077
:103DE00005A8FEF78FFF054600E000BF00BFCDB17C
:103DF00045A801210022CDE900122B4605AACDE9F4
:103E0000021009A10A20FEF7A5FB40B9469A91B21B
:103E10004598FDF79FFD45A8FEF780F802E00AA04F
:103E200000F094FE49B030BD2F62726F616463612F
:103E300073742F613159786F626730784D4B2F74EE
:103E400065737432000000005741524E0D0A0000A5
:103E500010B500F001F810BD0CB5002001900090E5
:103E60003348006840F480303149086000BF304872
:103E7000006800F4003000900198401C0190009808
:103E800018B90198B0F5A06FF1D12948006800F485
:103E9000003010B10120009001E000200090009857
:103EA000012843D12348006840F0100021490860F0
:103EB0000846006820F0030008600846006840F0EB
:103EC000020008601A48406819494860084640687E
:103ED00048600846406840F4806048600846406892
:103EE00020F47C1048600846406840F4E8104860C0
:103EF0000846006840F08070086000BF0C48006809
:103F000000F000700028F9D00948406820F0030054
:103F1000074948600846406840F00200486000BF1A
:103F20000348406800F00C000828F9D10CBD0000DF
:103F3000001002400020024010B501234FF47A72B5
:103F40000D490E4802F0BCF9012364220C490D48CA
:103F500002F0B6F9012340F6AC520B490B4802F0CF
:103F6000AFF9064802F0DCF9064802F0D9F9074833
:103F700002F0D6F910BD00007D610008C0130020DA
:103F800089610008D0130020A5620008E01300201A
:103F9000F0B585B004460D46002600200190029041
:103FA0000390049006E054F826101FA000F0CEFD08
:103FB000701CC6B2AE42F6DB01A82B462246022197
:103FC00000901420FEF727FC00282BD1029A91B212
:103FD0000198FDF7BFFC4FF4FA70FDF783FB07462D
:103FE0003846FEF72FFE09280AD115A000F0AEFDD5
:103FF00001A8FDF793FF00201849087105B0F0BD36
:1040000017A000F0A3FD01A8FDF788FF1348007971
:10401000401CC0B211490871022801DD00F044F8CB
:104020000120EBE70120E9E753756273637269626F
:104030006520546F7069633A2025730D0A000000F3
:10404000546970733A094D51545420537562736327
:1040500072696265204F4B0D0A0000001C2E002083
:10406000546970733A094D51545420537562736307
:1040700072696265204572720D0A0000042808D139
:104080004FF0E021096941F004014FF0E022116195
:1040900007E04FF0E021096921F004014FF0E02230
:1040A0001161704770470000012080F3138800BF42
:1040B00000BF0748006800F4E06006490843001D9F
:1040C00003490860BFF34F8F00BF00BFFEE7000049
:1040D0000CED00E00000FA0510B51348006840F050
:1040E00001001149086008464068104908400E491F
:1040F0004860084600680E4908400B4908600846B9
:10410000006820F4802008600846406820F4FE0023
:1041100048604FF41F008860FFF79AFE4FF0006080
:104120000449086010BD0000001002400000FFF8C4
:10413000FFFFF6FE08ED00E010B501210820FFF7B3
:1041400051FA01210846FFF74DFA01210348FDF716
:1041500089FD01210248FDF785FD10BD00043000F6
:104160000002300030B503460D480488B3F1006FFB
:1041700001D2012030BD4FF0006000EB8420984256
:1041800001D20220F6E703E018780870491C5B1C96
:10419000101EA2F10105AAB2F6D100BFEAE70000A5
:1041A000E0F7FF1F2DE9F84F80468946164656482E
:1041B000B0F800A0A8F1006B4FEADB25CBF30A00B2
:1041C00000900098C0F50067B8F1006F02D201209E
:1041D000BDE8F88F4FF0006000EB8A20404501D227
:1041E0000120F5E749484A4948604A484860BE42CC
:1041F00000DC37467DE0484802F058F908B102205B
:10420000E6E74FF0006101EBC5200A144349FFF7D0
:10421000A9FF414802F04AF908B10220D8E73C481A
:10422000006940F002003A4908614FF0006000EB7D
:10423000C52048610846006940F0400008613648E2
:1042400002F034F908B10220C2E73148006941F6B2
:10425000FD7108402E490861002007E019F8002090
:10426000009901442D4B5A54411C88B2B842F5DBE9
:1042700000242AE0284802F019F908B10220A7E733
:104280002348006940F0010021490861234810F8E3
:104290001400012101EB4401204A515C40EA012055
:1042A0004FF0006101EBC52121F814001A4802F01B
:1042B000FDF808B102208BE71548006941F6FE7150
:1042C000084013490861601C84B2B4F5806FD1DBEB
:1042D000B74200D10EE0B9446D1C00200090F01BE5
:1042E00086B2B6F5006F02DD4FF4006000E03046A4
:1042F000074680E700BF0648006940F08000044997
:104300000861002064E70000E0F7FF1F2301674514
:1043100000200240AB89EFCD88888800F013002090
:1043200010B50121234800F061F8002840D0224850
:104330000068401C2049086002F01AF81E48006816
:104340001921B0FBF1F201FB120010B900201B494A
:104350000870194800684FF47A71B0FBF1F201FB64
:10436000120008BB00201449086015484078401C22
:10437000134948701348007868B1084640780F2107
:1043800090FBF1F201FB120028B90D48007810B93A
:1043900002200B4908700B480078002804DD09480A
:1043A0000078401E074908700121024800F00FF80C
:1043B00010BD000000080040A80B0020AC0B00203E
:1043C0001C2E0020840B0020CA4302827047CA437F
:1043D0000282704721B1028842F00102028004E0AB
:1043E00002884FF6FE731A400280704730B50246CD
:1043F000002000230024158A05EA0103958905EAB7
:10440000010413B10CB1012000E0002030BD1AB14D
:1044100083890B43838102E083898B4383817047C7
:10442000002202881D4B98420ED01D4B98420BD0A3
:10443000B0F1804F08D01B4B984205D01A4B9842E0
:1044400002D01A4B984204D14FF68F731A404B8812
:104450001A43174B984207D0164B984204D04FF698
:10446000FF431A40CB881A4302808B8883850B88D0
:1044700003850A4B98420BD0094B984208D00E4B4B
:10448000984205D00D4B984202D00D4B984201D175
:104490000B7A03860123838270470000002C0140C1
:1044A000003401400004004000080040000C0040BF
:1044B0000010004000140040004001400044014052
:1044C000004801400146022901D1024800BF00BF57
:1044D000704700000008004010B540F225511D480B
:1044E00000F086F810B31B4800F03EF9C4B21A4839
:1044F000008800F40040C8B91748008800F48040E4
:1045000060B10A2C03D000201349088020E0124833
:10451000008840F400401049088019E00D2C06D1B5
:104520000D48008840F480400B49088010E00A489C
:104530000088C0F30D0009490C5407480088401C4E
:104540000549088008460088C72801DD002008804A
:1045500010BD000000380140540B0020F01B00206B
:1045600010B540F225510E4800F042F8B0B10D48A8
:104570000088FF2802D900200A4908800848001D49
:104580000088C1B2074802880088401C054B18808B
:10459000054881542021024800F008F810BD0000B1
:1045A000004800406A0B00201C25002001F4007226
:1045B000B2F5007F00D100BFCA430280704721B12D
:1045C000828942F40052828104E082894DF6FF73B1
:1045D0001A408281704702460020B1F5007F00D169
:1045E00000BF13880B400BB1012000E00020704792
:1045F00070B50246002400230025002040F66A160C
:10460000B14200D100BFC1F3421501F01F030126E2
:1046100006FA03F3012D02D19689334006E0022DFC
:1046200002D1168A334001E0968A33400C120126EB
:1046300006FA04F41688344013B10CB1012000E0EE
:10464000002070BDF0B503460024002600250020A0
:1046500040F66A17B94200D100BF1846C1F34214B0
:1046600001F01F06012707FA06F5012C01D10C30D5
:1046700004E0022C01D1103000E014301AB10768B8
:104680002F43076002E00768AF430760F0BD0000FA
:104690002DE9F04786B005460E460024A24600BF2D
:1046A000A1460027B08900B100BF2F462C8A4CF6E6
:1046B000FF700440F08804432C82AC894EF6F3105E
:1046C0000440B08831890843718908430443AC81B0
:1046D000AC8A4FF6FF400440B0890443AC8201A885
:1046E000FEF790FF1F48874202D1DDF810A001E0DD
:1046F000DDF80CA0A88900F4004040B10AEBCA0024
:1047000000EB0A1031684900B0FBF1F807E00AEB52
:10471000CA0000EB0A1031688900B0FBF1F8642090
:10472000B8FBF0F004012009642101FB1089A8897D
:1047300000F4004040B1322000EBC900B0FBF1F0C2
:1047400000F00700044308E0322000EB0910642168
:10475000B0FBF1F000F00F0004432C8106B0BDE87F
:10476000F08700000038014001468888C0F3080047
:104770007047C1F3080282807047000010B5042121
:104780003D48FDF7B7FAB0B13C48008A3C498988FA
:10479000884210DC3948408A3949C98888420ADC95
:1047A00037494888FCF735F8044634488168204684
:1047B000FCF7C0F806D233480068C0433249C1F85C
:1047C000A00102E000202F49086004212A48FDF7DB
:1047D00091FAC8B12D480079B0B92848008A284913
:1047E0008988884210DC2548408A2549C988884242
:1047F0000ADC23494888FCF70CF804461F48816806
:104800002046FCF797F804D201201E49091F0860D2
:1048100003E000201B49091F086004211648FDF72A
:1048200069FA20B9012017490839086003E000201F
:1048300014490839086004210F48FDF75BFA58B1A4
:104840000E48008A0E498988884205DC0B48408A58
:104850000B49C988884203DD00200A49091D086008
:1048600020210B48FDF746FA012802D10A2007490A
:104870004871012010BD0000000801401C2E0020DE
:10488000880B0020A081214200802142900B002053
:10489000000C0140F0B58FB004212448FDF72AFA3E
:1048A00000282DD02249C868FBF7E4FF04460D46D6
:1048B0001F498868FBF7DEFF064632460B461DA1FE
:1048C00002A8CDE9004500F051F902AA0021042018
:1048D000FEF730FC1648028A1BA102A800F046F938
:1048E00002AA02210020FEF725FC1148428A1AA1E3
:1048F00002A800F03BF902AA04210020FEF71AFCEE
:1049000004210A48FDF7F6F920B117A102A800F02A
:104910002DF903E019A102A800F028F902AA062146
:104920000020FEF707FC01200FB0F0BD0008014099
:104930001C2E0020543A252E31662020483A252E80
:104940003166202000000000D1CCCEEDC5A8B6C84D
:10495000203A202564202000D3D0BAA6C6F8CCE5A2
:10496000203A202564202000CAC7B7F1D3D0C3F76E
:10497000BBF0203A20B7F12000000000CAC7B7F111
:10498000D3D0C3F7BBF0203A20CAC72000000000F4
:1049900000BFFEE710B586B00446012144F20400D2
:1049A000FEF720FE4FF40070ADF8140003208DF8E0
:1049B000160018208DF8170005A91C48FDF7C7F848
:1049C0004FF48060ADF8140004208DF8170005A99D
:1049D0001648FDF7BCF825208DF8000003208DF85F
:1049E00001008DF8020001208DF803006846FEF7F3
:1049F000F9F901940020ADF80800ADF80A00ADF80F
:104A00000C00ADF810000C20ADF80E0001A908480C
:104A1000FFF73EFE012240F225510548FFF712FE46
:104A200001210348FFF7CBFD06B010BD000801408F
:104A30000038014010B586B0044601210820FEF779
:104A4000D1FD01218804FEF7BDFD18208DF8170067
:104A50004FF48060ADF8140003208DF8160005A90E
:104A60001D48FDF774F804208DF817004002ADF8DA
:104A7000140003208DF8160005A91748FDF767F804
:104A800001940020ADF810000C20ADF80E000020BD
:104A9000ADF80C00ADF80A00ADF8080001A90F4808
:104AA000FFF7F6FD01210D48FFF789FD012240F2D5
:104AB00025510A48FFF7C6FD27208DF80000012088
:104AC0008DF803008DF801008DF802006846FEF7AE
:104AD00089F906B010BD0000000C014000480040FC
:104AE00070B504460D4600260DE014F8011B07487A
:104AF000FFF73FFE00BF40210448FFF76CFD002890
:104B0000F9D0701C86B2AE42EFDB70BD00480040A9
:104B100010B5022209490A480068FFF743FB022248
:104B20000649891C07480068FFF73CFB022203493D
:104B3000091D05480068FFF735FB10BD8A0B0020F2
:104B40003C0B0020400B0020440B00200FB4054B11
:104B500010B503A9044A029800F04CF910BC5DF8A6
:104B600014FB000001580008500B00200FB4084B44
:104B700010B504A902AA039800F03CF9044602A962
:104B8000002000F0BAFC204610BC5DF814FB0000C9
:104B9000FB54000830B528B1144C031F00202168D5
:104BA0000A4605E0084630BD9A4203D810465268CE
:104BB000002AF9D1002800D041680BD00468A3EB8B
:104BC0000005A54204D11B681C440346046002E0B2
:104BD000436000E023603AB11C68D51AA54203D1B6
:104BE00015682C441C6052685A6030BDB80B002018
:104BF0002DE9F04782460F4C10480D4E0E4F001B1A
:104C00004FF0000820F007054FF00109002211467F
:104C1000504600F02FFE002802D1306810B100206D
:104C2000BDE8F0873C60C4E90058C6F80090EDE7A5
:104C3000BC0B00203C2E0020B80B0020383A00208E
:104C400002E008C8121F08C1002AFAD17047704755
:104C5000002001E001C1121F002AFBD170470000B3
:104C60002DE9FF5F82B00021DDE90430020DDDF89F
:104C700040B0034318D044F61050A2F2FF32424332
:104C80001514119801281FD0A5EB0B00401C5FEAFA
:104C9000000A4FF000064E4FDFF83891B0465046FC
:104CA00015D5CAF1000413E0119801244AA3012884
:104CB00001D16FEA0B010298119AC0E90031C0E9F5
:104CC000024206B0BDE8F09FCBF10000DFE70446EA
:104CD0000021404A491842EB0450CDE9001012E08F
:104CE000E00707D032463B4640464946FBF71FFDEA
:104CF0008046894632463B4610461946FBF717FD6B
:104D000006460F466410002CEAD1DDE90401DDE916
:104D10000023BAF1000F06DAFBF709FD42464B46C5
:104D2000FBF705FD05E0FBF789FF42464B46FBF725
:104D300085FF04460E460022284BFBF7C7FD03D82B
:104D40004FF0FF30014607E00022254B2046314658
:104D5000FBF746FCFBF7EDFF102409E0002C0ADB13
:104D60000A220023FBF706FE039B30321A55641E0D
:104D700050EA0102F2D1641C039AC4F111031444F5
:104D8000119A012A03D0012208430DD10AE00843F9
:104D900004D000204FF0110B119072E7A3EB0B052C
:104DA0006D1E0DE05B4504DD4FF0000205F10105CD
:104DB00004E003DA4FF00002A5F10105002AECD06F
:104DC00002981199C0E90231C0E9004579E7000075
:104DD000000014400000F03F300000000000F043ED
:104DE0000000E03F30380A2801D20120704700203F
:104DF000704700002DE9FF4F95B09A468846064659
:104E00000025EEE1252877D100242746F94A012123
:104E1000039400E0044316F8013F203B01FA03F03D
:104E20001042F7D130782A2811D06FF02F03307854
:104E3000A0F13002092A16D8039A44F0020402EBCA
:104E4000820203EB42021044761C0390EFE758F80D
:104E5000042B0392002A03DA504244F400540390D6
:104E600044F00204761C30782E2816D116F8010F73
:104E700044F004042A280DD06FF02F023078A0F1FE
:104E80003003092B09D807EB870302EB4303C7184C
:104E9000761CF3E758F8047B761C30786C280FD02A
:104EA00006DC4C2817D068280DD06A2814D104E0FD
:104EB000742810D07A280FD10DE044F400140AE0D1
:104EC00044F4801401E044F440147278824202D128
:104ED00004F58014761C761C307866280BD013DC21
:104EE000582877D009DC002875D04528F6D0462808
:104EF000F4D047281AD193E118E0632835D064280C
:104F000079D0652812D18BE1702873D008DC67282E
:104F1000F1D069286FD06E280DD06F2806D1ACE093
:104F200073282CD0752874D0782853D052461799FE
:104F300090476D1C54E1C4F30250022809D00328A5
:104F40000DD0D8F8001004280DD00D6008F1040829
:104F500046E1D8F80010EA17C1E90052F6E7D8F8A0
:104F600000100D80F2E70D70F0E718F8041B8DF8C3
:104F7000001000208DF80100EB46012003E058F8F6
:104F800004BB4FF0FF3061074FF0000102D40DE089
:104F900009F101018946B9420FDA8145F8DB1BF8B6
:104FA00009100029F4D108E009F101018946814284
:104FB000FADB1BF809100029F6D103985346A0EB41
:104FC000090721463846179A00F080FA284400EB7A
:104FD000090507E044E008E10DE01BF8010B52462B
:104FE00017999047B9F10109F7D25346214638463F
:104FF000179AF2E039E00A21C4F302524FF0000B95
:105000000091022A06D058F8040BC117032A09D0D0
:105010000AE023E008F1070020F00702F2E80201AD
:10502000904605E000B2C117042A01D140B2C11771
:10503000002906DA0A460021404261EB02012D22D6
:1050400002E0220504D52B228DF80420012203E082
:10505000E20701D02022F7E7914657E00A2100E05D
:1050600010214FF0000B00910BE010214FF0000BCE
:1050700044F004040827009103E008204FF0000BDF
:105080000090C4F30252022A05D058F8040B002104
:10509000032A08D008E008F1070020F00702F2E830
:1050A0000201904603E080B2042A00D1C0B24FF062
:1050B000000922072AD53278702A07D0DDF800C00F
:1050C0008CF0100C5CEA0B0C05D00EE040228DF841
:1050D0000420012208E050EA010306D030238DF8B5
:1050E00004308DF8052002229146009B83F00803CE
:1050F00053EA0B030AD150EA010201D1620705D538
:1051000030228DF804204FF001097F1E3278582A92
:1051100004D039A20C920CAA02920BE03BA2F9E750
:105120005B46009AFBF726FC0C9B9B5C029A521E86
:105130000292137050EA0102F2D1029804A9081AEF
:1051400000F1200B600702D524F4803400E0012731
:105150005F4502DDA7EB0B0000E0002000EB0B0138
:10516000009003984944401A0390E00306D4534644
:105170002146179A039800F0A9F90544002706E094
:1051800001A85246C05D179990476D1C7F1C4F4582
:10519000F6DBE0030CD553462146179A039800F03E
:1051A00095F9054404E030205246179990476D1C4C
:1051B0000099481E00900029F5DC08E00298029949
:1051C00052460078491C0291179990476D1CBBF11B
:1051D0000001ABF1010BF1DC5BE100F065F9054486
:1051E000761C307800287FF40DAE19B02846BDE853
:1051F000F08F000009280100303132333435363762
:105200003839616263646566000000003031323312
:1052100034353637383941424344454600000000B2
:10522000600700D4062708F1070020F00700F0E827
:105230000223804603F0004C5FEA0C0001D097A0E7
:1052400009E0200501D596A005E0E00701D095A072
:1052500001E0AFF24C001390307823F00043652852
:105260000CD006DC452809D046281DD047287FD120
:105270003BE0662818D067287AD136E00021112F4C
:1052800001DB112000E0781CCDE9000104A90CA885
:10529000FFF7E6FCDDE90D010C9A4FF0000B07F17A
:1052A0000109109200914EE04FF000400097CDE9C7
:1052B000011004A90CA8FFF7D3FCDDE90D020C9B3B
:1052C0000F994FF0000B91461093009211B9791C81
:1052D00000EB0109B7EB090003D4C0F1FF3B07F174
:1052E0000109A9EB0700019042E0012F00DA012734
:1052F0000021112F01DD112000E03846CDE9000129
:1053000004A90CA8FFF7ACFCDDE90D010C9A009193
:105310004FF0000BB946109221070FD4009A4A456E
:1053200003DA914601E0A9F10109B9F1010F05DDA8
:10533000109AA9F10101515C3029F4D0B84202DA87
:1053400010F1040F03DA0121CDE9011010E000286B
:1053500003DC8344A9EB000102E0411C494500DD68
:105360008946A0EB0B00401C01904FF000400290DA
:10537000200705D40198484502DB4FF0FF3001902B
:1053800000208DF84B0002980DF14B07B0F1004F53
:1053900025D002200C902B200D90029800280CDACA
:1053A000404202902D200D9007E00A210298FBF761
:1053B000CBFA3031029007F8011D0C99481E0C9071
:1053C0000029F2DC02980028EFD1791E0D980870B0
:1053D000307800F0200040F0450007F8020D11A8D9
:1053E000C01BC01D02901398007800B1012000EB93
:1053F0000901019801EBE071029801440398401AF9
:10540000401E0390E00306D453462146179A0398A2
:1054100000F05CF805441398007818B152461799CB
:1054200090476D1CE00323D553462146179A0398F5
:1054300000F04CF805441BE0BBF1000F07DB0098BF
:10544000584504DD1098179910F80B0001E01799E2
:1054500030205246904701980BF1010B401E05F198
:105460000105019004D12E205246179990476D1CDA
:10547000B9F10001A9F10109DEDC05E017F8010B23
:105480005246179990476D1C0299481E02900029B8
:10549000F4DC53462146179A03989EE62D0000003F
:1054A0002B000000200000002DE9F04104460025FB
:1054B0001E461746880404D405E039462020B0472C
:1054C0006D1C641EF9D52846BDE8F0812DE9F04138
:1054D000044600251E469046C80301D5302700E04B
:1054E0002027880404D505E041463846B0476D1CA6
:1054F000641EF9D52846BDE8F0810A68531C0B608C
:1055000010707047014609B1086808B9002070475B
:1055100019B1D1E90120904201D30846F7E702E032
:105520008868401C886041B1D1E90120904204D2D2
:105530008A680868805C2028F2DDD1E90120904269
:1055400002D18868401E88600846E0E770B50446CE
:10555000002522E02568A08900F4807020B9A068A9
:1055600010B1A068FFF7F2FFA08900F4807028B99D
:10557000206918B10A4A206951688847A08900F457
:10558000007028B9206A18B1054A206A5168884716
:1055900003484168204688472C46002CDAD170BD6C
:1055A000780B002070B504460D460022294620469F
:1055B00000F036F970BD70B5044628202168884790
:1055C00005461DB128212846FAF7EFFD284670BD93
:1055D00010B5044600221146204600F06BF810BDBD
:1055E0002DE9F0478AB004460E46154698461C2120
:1055F00003A8FAF7DAFD002700202C49086048606C
:1056000004B106B932E00394049600200590284ABC
:1056100007CA07AB07C32648FFF7CDFF074607B900
:1056200024E003A800F07EFD8246FFF76BFF814671
:105630004946384600F0A2FC00B917E0B8F1000F67
:105640000BD003A8FFF75EFFDDE90410884203D208
:1056500005990398405C00B108E01DB105990398D5
:105660000844286038460AB0BDE8F08717B13846CC
:10567000FFF76CFFC4B1019400200290DDE9041033
:10568000884202D20598029004E0049810B1049870
:10569000401E02901DB1DDE9010108442860034865
:1056A000DDE9011206C000BF0020DCE7700B00201E
:1056B000780B00202DE9F04104460D46164614B93A
:1056C0000020BDE8F0812046FAF7A2FD471C3346D2
:1056D0002A4639462046FFF783FFF2E770B50446B5
:1056E0000D4604B10DB9012070BDAC4201D10020BE
:1056F000FAE705E0207808B90020F5E7641C6D1C86
:105700002078FAF733FD06462878FAF72FFD86420F
:10571000F0D02078FAF72AFD06462878FAF726FD19
:10572000301AE1E710B56FF00400FEF7A7FC0A4855
:1057300000680A49B0FBF1F0094908700846007892
:1057400000EB4001C1EBC0104FF6FF7101EAC00051
:105750000449088010BD00000400002000127A00F7
:105760004C0B00204E0B00200146114A12884A4380
:105770004FF0E0235A6100229A611A46126942F002
:1057800001021A6100BF4FF0E022106900F001022F
:105790001AB100F48032002AF5D04FF0E0221269ED
:1057A00022F001024FF0E0231A6100229A61704753
:1057B0004E0B00200146114A12784A434FF0E02375
:1057C0005A6100229A611A46126942F001021A6176
:1057D00000BF4FF0E022106900F001021AB100F49E
:1057E0008032002AF5D04FF0E022126922F0010247
:1057F0004FF0E0231A6100229A6170474C0B0020A1
:1058000000BF054A128802F04002002AF9D0C2B255
:10581000014B1B1D1A807047003801402E20704735
:105820002DE9F04105460E461746002405B116B98C
:105830000020BDE8F081AC685FB100E024688CB165
:10584000206A78B13046216AFAF7E9FC0028F5D1E0
:1058500008E000E024682CB13046216AFFF73EFFE3
:105860000028F7D10CB1206A08B90020E1E72046F2
:10587000DFE700002DE9F0410B3020F00706104D66
:1058800019E02068B04215D3B0420AD9871B201D09
:10589000D4F80480FAF770FCA019C0E900782860F9
:1058A00004E060682860201DFAF766FC201D266071
:1058B000BDE8F081251D2C68002CE2D10020F7E71F
:1058C000B80B00200024FEF737FBFCF723FA642016
:1058D000FBF71EFCFDF7C8FA01210B48FEF77AFD25
:1058E00011E000F0FDFC0020FBF7FCFE044614B1C3
:1058F0002046FEF71DF80548007820B9FBF71CFC90
:10590000012002490870ECE700080040AC0B0020C1
:1059100070B5064600243046FFF75AFE044624B907
:1059200024A0FFF713F9002070BD26A12046FFF741
:1059300039FE057D012D04D0022D1DD0032D31D15E
:1059400025E021A12046FFF72DFE808A20494880CE
:1059500020A12046FFF726FE808A1D4988801FA1CE
:105960002046FFF71FFE808A1949C880FFF7D0F84C
:1059700001201C49087016E01BA12046FFF712FE0B
:10598000007D1A4908710120164908700BE018A122
:105990002046FFF707FE40691749086001201149BA
:1059A000087000E000BF00BF2046FFF7CFFD0120D8
:1059B000BAE700007061727365206661696C2E0A37
:1059C00000000000636D6400746D65705F76000018
:1059D000880B00206D71325F760000006D713133ED
:1059E000355F76001C2E002066616E00900B002053
:1059F00072656C6179000000A481214203494988E5
:105A00000A2291FBF2F188B270470000480B002097
:105A10000020034909880A2291FBF2F188B27047FD
:105A2000480B00202DE9F04180460C460025002758
:105A3000E068B0F57A7F02D30020BDE8F081E0682D
:105A4000401CE060A1682068405C5B2800D05FE0FB
:105A5000A068401CA0602046FFF754FD4CB1D4E97B
:105A60000110884205D2A1682068405C5D2800D101
:105A70003FE01CB1D4E90110884203D3A068401E66
:105A8000A06045E0A068401EA06000BF04F11000C7
:105A9000FFF791FD064606B93AE015B93546374697
:105AA00002E03E6077603746A068401CA060204658
:105AB000FFF728FD2146384600F060FA00B927E0DC
:105AC0002046FFF71FFD44B1D4E90110884204D2FB
:105AD000A1682068405C2C28D8D044B1D4E90110DA
